{
  "contractName": "SolnSquareVerifier",
  "abi": [
    {
      "inputs": [
        {
          "internalType": "string",
          "name": "name",
          "type": "string"
        },
        {
          "internalType": "string",
          "name": "symbol",
          "type": "string"
        },
        {
          "internalType": "address",
          "name": "verifierAddress",
          "type": "address"
        }
      ],
      "stateMutability": "nonpayable",
      "type": "constructor"
    },
    {
      "anonymous": false,
      "inputs": [
        {
          "indexed": true,
          "internalType": "address",
          "name": "owner",
          "type": "address"
        },
        {
          "indexed": true,
          "internalType": "address",
          "name": "approved",
          "type": "address"
        },
        {
          "indexed": true,
          "internalType": "uint256",
          "name": "tokenId",
          "type": "uint256"
        }
      ],
      "name": "Approval",
      "type": "event"
    },
    {
      "anonymous": false,
      "inputs": [
        {
          "indexed": true,
          "internalType": "address",
          "name": "owner",
          "type": "address"
        },
        {
          "indexed": true,
          "internalType": "address",
          "name": "operator",
          "type": "address"
        },
        {
          "indexed": false,
          "internalType": "bool",
          "name": "approved",
          "type": "bool"
        }
      ],
      "name": "ApprovalForAll",
      "type": "event"
    },
    {
      "anonymous": false,
      "inputs": [
        {
          "indexed": false,
          "internalType": "address",
          "name": "originAddress",
          "type": "address"
        }
      ],
      "name": "ContractPaused",
      "type": "event"
    },
    {
      "anonymous": false,
      "inputs": [
        {
          "indexed": false,
          "internalType": "address",
          "name": "originAddress",
          "type": "address"
        }
      ],
      "name": "ContractResumed",
      "type": "event"
    },
    {
      "anonymous": false,
      "inputs": [
        {
          "indexed": false,
          "internalType": "bytes32",
          "name": "key",
          "type": "bytes32"
        },
        {
          "indexed": false,
          "internalType": "uint256",
          "name": "index",
          "type": "uint256"
        },
        {
          "indexed": false,
          "internalType": "address",
          "name": "owner",
          "type": "address"
        }
      ],
      "name": "SolutionAdded",
      "type": "event"
    },
    {
      "anonymous": false,
      "inputs": [
        {
          "indexed": true,
          "internalType": "address",
          "name": "from",
          "type": "address"
        },
        {
          "indexed": true,
          "internalType": "address",
          "name": "to",
          "type": "address"
        },
        {
          "indexed": true,
          "internalType": "uint256",
          "name": "tokenId",
          "type": "uint256"
        }
      ],
      "name": "Transfer",
      "type": "event"
    },
    {
      "inputs": [
        {
          "internalType": "bytes32",
          "name": "_myid",
          "type": "bytes32"
        },
        {
          "internalType": "string",
          "name": "_result",
          "type": "string"
        }
      ],
      "name": "__callback",
      "outputs": [],
      "stateMutability": "nonpayable",
      "type": "function"
    },
    {
      "inputs": [
        {
          "internalType": "bytes32",
          "name": "_myid",
          "type": "bytes32"
        },
        {
          "internalType": "string",
          "name": "_result",
          "type": "string"
        },
        {
          "internalType": "bytes",
          "name": "_proof",
          "type": "bytes"
        }
      ],
      "name": "__callback",
      "outputs": [],
      "stateMutability": "nonpayable",
      "type": "function"
    },
    {
      "inputs": [
        {
          "internalType": "address",
          "name": "to",
          "type": "address"
        },
        {
          "internalType": "uint256",
          "name": "tokenId",
          "type": "uint256"
        }
      ],
      "name": "approve",
      "outputs": [],
      "stateMutability": "nonpayable",
      "type": "function"
    },
    {
      "inputs": [
        {
          "internalType": "address",
          "name": "owner",
          "type": "address"
        }
      ],
      "name": "balanceOf",
      "outputs": [
        {
          "internalType": "uint256",
          "name": "",
          "type": "uint256"
        }
      ],
      "stateMutability": "view",
      "type": "function",
      "constant": true
    },
    {
      "inputs": [],
      "name": "baseTokenURI",
      "outputs": [
        {
          "internalType": "string",
          "name": "",
          "type": "string"
        }
      ],
      "stateMutability": "view",
      "type": "function",
      "constant": true
    },
    {
      "inputs": [
        {
          "internalType": "uint256",
          "name": "tokenId",
          "type": "uint256"
        }
      ],
      "name": "getApproved",
      "outputs": [
        {
          "internalType": "address",
          "name": "",
          "type": "address"
        }
      ],
      "stateMutability": "view",
      "type": "function",
      "constant": true
    },
    {
      "inputs": [],
      "name": "getOwner",
      "outputs": [
        {
          "internalType": "address",
          "name": "",
          "type": "address"
        }
      ],
      "stateMutability": "view",
      "type": "function",
      "constant": true
    },
    {
      "inputs": [
        {
          "internalType": "address",
          "name": "owner",
          "type": "address"
        },
        {
          "internalType": "address",
          "name": "operator",
          "type": "address"
        }
      ],
      "name": "isApprovedForAll",
      "outputs": [
        {
          "internalType": "bool",
          "name": "",
          "type": "bool"
        }
      ],
      "stateMutability": "view",
      "type": "function",
      "constant": true
    },
    {
      "inputs": [],
      "name": "name",
      "outputs": [
        {
          "internalType": "string",
          "name": "",
          "type": "string"
        }
      ],
      "stateMutability": "view",
      "type": "function",
      "constant": true
    },
    {
      "inputs": [
        {
          "internalType": "uint256",
          "name": "tokenId",
          "type": "uint256"
        }
      ],
      "name": "ownerOf",
      "outputs": [
        {
          "internalType": "address",
          "name": "",
          "type": "address"
        }
      ],
      "stateMutability": "view",
      "type": "function",
      "constant": true
    },
    {
      "inputs": [
        {
          "internalType": "address",
          "name": "from",
          "type": "address"
        },
        {
          "internalType": "address",
          "name": "to",
          "type": "address"
        },
        {
          "internalType": "uint256",
          "name": "tokenId",
          "type": "uint256"
        }
      ],
      "name": "safeTransferFrom",
      "outputs": [],
      "stateMutability": "nonpayable",
      "type": "function"
    },
    {
      "inputs": [
        {
          "internalType": "address",
          "name": "from",
          "type": "address"
        },
        {
          "internalType": "address",
          "name": "to",
          "type": "address"
        },
        {
          "internalType": "uint256",
          "name": "tokenId",
          "type": "uint256"
        },
        {
          "internalType": "bytes",
          "name": "_data",
          "type": "bytes"
        }
      ],
      "name": "safeTransferFrom",
      "outputs": [],
      "stateMutability": "nonpayable",
      "type": "function"
    },
    {
      "inputs": [
        {
          "internalType": "address",
          "name": "to",
          "type": "address"
        },
        {
          "internalType": "bool",
          "name": "approved",
          "type": "bool"
        }
      ],
      "name": "setApprovalForAll",
      "outputs": [],
      "stateMutability": "nonpayable",
      "type": "function"
    },
    {
      "inputs": [
        {
          "internalType": "bool",
          "name": "newValue",
          "type": "bool"
        }
      ],
      "name": "setPaused",
      "outputs": [],
      "stateMutability": "nonpayable",
      "type": "function"
    },
    {
      "inputs": [
        {
          "internalType": "bytes4",
          "name": "interfaceId",
          "type": "bytes4"
        }
      ],
      "name": "supportsInterface",
      "outputs": [
        {
          "internalType": "bool",
          "name": "",
          "type": "bool"
        }
      ],
      "stateMutability": "view",
      "type": "function",
      "constant": true
    },
    {
      "inputs": [],
      "name": "symbol",
      "outputs": [
        {
          "internalType": "string",
          "name": "",
          "type": "string"
        }
      ],
      "stateMutability": "view",
      "type": "function",
      "constant": true
    },
    {
      "inputs": [
        {
          "internalType": "uint256",
          "name": "index",
          "type": "uint256"
        }
      ],
      "name": "tokenByIndex",
      "outputs": [
        {
          "internalType": "uint256",
          "name": "",
          "type": "uint256"
        }
      ],
      "stateMutability": "view",
      "type": "function",
      "constant": true
    },
    {
      "inputs": [
        {
          "internalType": "address",
          "name": "owner",
          "type": "address"
        },
        {
          "internalType": "uint256",
          "name": "index",
          "type": "uint256"
        }
      ],
      "name": "tokenOfOwnerByIndex",
      "outputs": [
        {
          "internalType": "uint256",
          "name": "",
          "type": "uint256"
        }
      ],
      "stateMutability": "view",
      "type": "function",
      "constant": true
    },
    {
      "inputs": [
        {
          "internalType": "uint256",
          "name": "tokenId",
          "type": "uint256"
        }
      ],
      "name": "tokenURI",
      "outputs": [
        {
          "internalType": "string",
          "name": "",
          "type": "string"
        }
      ],
      "stateMutability": "view",
      "type": "function",
      "constant": true
    },
    {
      "inputs": [],
      "name": "totalSupply",
      "outputs": [
        {
          "internalType": "uint256",
          "name": "",
          "type": "uint256"
        }
      ],
      "stateMutability": "view",
      "type": "function",
      "constant": true
    },
    {
      "inputs": [
        {
          "internalType": "address",
          "name": "from",
          "type": "address"
        },
        {
          "internalType": "address",
          "name": "to",
          "type": "address"
        },
        {
          "internalType": "uint256",
          "name": "tokenId",
          "type": "uint256"
        }
      ],
      "name": "transferFrom",
      "outputs": [],
      "stateMutability": "nonpayable",
      "type": "function"
    },
    {
      "inputs": [
        {
          "internalType": "address",
          "name": "newOwner",
          "type": "address"
        }
      ],
      "name": "transferOwnership",
      "outputs": [],
      "stateMutability": "nonpayable",
      "type": "function"
    },
    {
      "inputs": [
        {
          "components": [
            {
              "components": [
                {
                  "internalType": "uint256",
                  "name": "X",
                  "type": "uint256"
                },
                {
                  "internalType": "uint256",
                  "name": "Y",
                  "type": "uint256"
                }
              ],
              "internalType": "struct Pairing.G1Point",
              "name": "a",
              "type": "tuple"
            },
            {
              "components": [
                {
                  "internalType": "uint256[2]",
                  "name": "X",
                  "type": "uint256[2]"
                },
                {
                  "internalType": "uint256[2]",
                  "name": "Y",
                  "type": "uint256[2]"
                }
              ],
              "internalType": "struct Pairing.G2Point",
              "name": "b",
              "type": "tuple"
            },
            {
              "components": [
                {
                  "internalType": "uint256",
                  "name": "X",
                  "type": "uint256"
                },
                {
                  "internalType": "uint256",
                  "name": "Y",
                  "type": "uint256"
                }
              ],
              "internalType": "struct Pairing.G1Point",
              "name": "c",
              "type": "tuple"
            }
          ],
          "internalType": "struct SquareVerifier.Proof",
          "name": "proof",
          "type": "tuple"
        },
        {
          "internalType": "uint256[2]",
          "name": "input",
          "type": "uint256[2]"
        }
      ],
      "name": "addSolution",
      "outputs": [
        {
          "internalType": "bytes32",
          "name": "key",
          "type": "bytes32"
        },
        {
          "internalType": "uint256",
          "name": "index",
          "type": "uint256"
        },
        {
          "internalType": "address",
          "name": "owner",
          "type": "address"
        }
      ],
      "stateMutability": "nonpayable",
      "type": "function"
    },
    {
      "inputs": [
        {
          "components": [
            {
              "components": [
                {
                  "internalType": "uint256",
                  "name": "X",
                  "type": "uint256"
                },
                {
                  "internalType": "uint256",
                  "name": "Y",
                  "type": "uint256"
                }
              ],
              "internalType": "struct Pairing.G1Point",
              "name": "a",
              "type": "tuple"
            },
            {
              "components": [
                {
                  "internalType": "uint256[2]",
                  "name": "X",
                  "type": "uint256[2]"
                },
                {
                  "internalType": "uint256[2]",
                  "name": "Y",
                  "type": "uint256[2]"
                }
              ],
              "internalType": "struct Pairing.G2Point",
              "name": "b",
              "type": "tuple"
            },
            {
              "components": [
                {
                  "internalType": "uint256",
                  "name": "X",
                  "type": "uint256"
                },
                {
                  "internalType": "uint256",
                  "name": "Y",
                  "type": "uint256"
                }
              ],
              "internalType": "struct Pairing.G1Point",
              "name": "c",
              "type": "tuple"
            }
          ],
          "internalType": "struct SquareVerifier.Proof",
          "name": "proof",
          "type": "tuple"
        },
        {
          "internalType": "uint256[2]",
          "name": "input",
          "type": "uint256[2]"
        },
        {
          "internalType": "uint256",
          "name": "tokenId",
          "type": "uint256"
        }
      ],
      "name": "mint",
      "outputs": [],
      "stateMutability": "nonpayable",
      "type": "function"
    },
    {
      "inputs": [
        {
          "internalType": "address",
          "name": "to",
          "type": "address"
        },
        {
          "internalType": "uint256",
          "name": "tokenId",
          "type": "uint256"
        }
      ],
      "name": "mint",
      "outputs": [
        {
          "internalType": "bool",
          "name": "",
          "type": "bool"
        }
      ],
      "stateMutability": "nonpayable",
      "type": "function"
    }
  ],
  "bytecode": "0x60806040523480156200001157600080fd5b5060405162004092380380620040928339818101604052810190620000379190620004fb565b828281816040518060600160405280603f815260200162004053603f9139336000806101000a81548173ffffffffffffffffffffffffffffffffffffffff021916908373ffffffffffffffffffffffffffffffffffffffff16021790555060008060146101000a81548160ff021916908315150217905550620000c76301ffc9a760e01b620001a960201b60201c565b620000df6380ac58cd60e01b620001a960201b60201c565b620000f763780e9d6360e01b620001a960201b60201c565b82600f90805190602001906200010f92919062000249565b5081601090805190602001906200012892919062000249565b5080601190805190602001906200014192919062000249565b506200015a635b5e139f60e01b620001a960201b60201c565b505050505080601360006101000a81548173ffffffffffffffffffffffffffffffffffffffff021916908373ffffffffffffffffffffffffffffffffffffffff160217905550505050620005fa565b63ffffffff60e01b817bffffffffffffffffffffffffffffffffffffffffffffffffffffffff19161415620001dd57600080fd5b6001806000837bffffffffffffffffffffffffffffffffffffffffffffffffffffffff19167bffffffffffffffffffffffffffffffffffffffffffffffffffffffff1916815260200190815260200160002060006101000a81548160ff02191690831515021790555050565b8280546200025790620005c4565b90600052602060002090601f0160209004810192826200027b5760008555620002c7565b82601f106200029657805160ff1916838001178555620002c7565b82800160010185558215620002c7579182015b82811115620002c6578251825591602001919060010190620002a9565b5b509050620002d69190620002da565b5090565b5b80821115620002f5576000816000905550600101620002db565b5090565b6000604051905090565b600080fd5b600080fd5b600080fd5b600080fd5b6000601f19601f8301169050919050565b7f4e487b7100000000000000000000000000000000000000000000000000000000600052604160045260246000fd5b620003628262000317565b810181811067ffffffffffffffff8211171562000384576200038362000328565b5b80604052505050565b600062000399620002f9565b9050620003a7828262000357565b919050565b600067ffffffffffffffff821115620003ca57620003c962000328565b5b620003d58262000317565b9050602081019050919050565b60005b8381101562000402578082015181840152602081019050620003e5565b8381111562000412576000848401525b50505050565b60006200042f6200042984620003ac565b6200038d565b9050828152602081018484840111156200044e576200044d62000312565b5b6200045b848285620003e2565b509392505050565b600082601f8301126200047b576200047a6200030d565b5b81516200048d84826020860162000418565b91505092915050565b600073ffffffffffffffffffffffffffffffffffffffff82169050919050565b6000620004c38262000496565b9050919050565b620004d581620004b6565b8114620004e157600080fd5b50565b600081519050620004f581620004ca565b92915050565b60008060006060848603121562000517576200051662000303565b5b600084015167ffffffffffffffff81111562000538576200053762000308565b5b620005468682870162000463565b935050602084015167ffffffffffffffff8111156200056a576200056962000308565b5b620005788682870162000463565b92505060406200058b86828701620004e4565b9150509250925092565b7f4e487b7100000000000000000000000000000000000000000000000000000000600052602260045260246000fd5b60006002820490506001821680620005dd57607f821691505b60208210811415620005f457620005f362000595565b5b50919050565b613a49806200060a6000396000f3fe608060405234801561001057600080fd5b50600436106101735760003560e01c806342842e0e116100de57806395d89b4111610097578063c87b56dd11610071578063c87b56dd1461046e578063d547cfb71461049e578063e985e9c5146104bc578063f2fde38b146104ec57610173565b806395d89b4114610418578063a22cb46514610436578063b88d4fde1461045257610173565b806342842e0e1461031c5780634f6ccce7146103385780636352211e146103685780636977bc841461039857806370a08231146103ca578063893d20e8146103fa57610173565b806323b872dd1161013057806323b872dd1461024c57806327dc297e14610268578063295ffafa146102845780632f745c59146102a057806338bbfa50146102d057806340c10f19146102ec57610173565b806301ffc9a71461017857806306fdde03146101a8578063081812fc146101c6578063095ea7b3146101f657806316c38b3c1461021257806318160ddd1461022e575b600080fd5b610192600480360381019061018d919061235a565b610508565b60405161019f91906123a2565b60405180910390f35b6101b0610570565b6040516101bd9190612456565b60405180910390f35b6101e060048036038101906101db91906124ae565b610602565b6040516101ed919061251c565b60405180910390f35b610210600480360381019061020b9190612563565b61063f565b005b61022c600480360381019061022791906125cf565b61081d565b005b610236610962565b604051610243919061260b565b60405180910390f35b61026660048036038101906102619190612626565b61096f565b005b610282600480360381019061027d91906127e4565b6109c8565b005b61029e60048036038101906102999190612a00565b610a24565b005b6102ba60048036038101906102b59190612563565b610b79565b6040516102c7919061260b565b60405180910390f35b6102ea60048036038101906102e59190612af7565b610bf3565b005b61030660048036038101906103019190612563565b610bf8565b60405161031391906123a2565b60405180910390f35b61033660048036038101906103319190612626565b610ca6565b005b610352600480360381019061034d91906124ae565b610cc6565b60405161035f919061260b565b60405180910390f35b610382600480360381019061037d91906124ae565b610d01565b60405161038f919061251c565b60405180910390f35b6103b260048036038101906103ad9190612b82565b610d3e565b6040516103c193929190612bd3565b60405180910390f35b6103e460048036038101906103df9190612c0a565b61106c565b6040516103f1919061260b565b60405180910390f35b6104026110bc565b60405161040f919061251c565b60405180910390f35b6104206110e5565b60405161042d9190612456565b60405180910390f35b610450600480360381019061044b9190612c37565b611177565b005b61046c60048036038101906104679190612c77565b6112ad565b005b610488600480360381019061048391906124ae565b6112d3565b6040516104959190612456565b60405180910390f35b6104a661138a565b6040516104b39190612456565b60405180910390f35b6104d660048036038101906104d19190612cfa565b61141c565b6040516104e391906123a2565b60405180910390f35b61050660048036038101906105019190612c0a565b6114b0565b005b600060016000837bffffffffffffffffffffffffffffffffffffffffffffffffffffffff19167bffffffffffffffffffffffffffffffffffffffffffffffffffffffff1916815260200190815260200160002060009054906101000a900460ff169050919050565b6060600f805461057f90612d69565b80601f01602080910402602001604051908101604052809291908181526020018280546105ab90612d69565b80156105f85780601f106105cd576101008083540402835291602001916105f8565b820191906000526020600020905b8154815290600101906020018083116105db57829003601f168201915b5050505050905090565b60006003600083815260200190815260200160002060009054906101000a900473ffffffffffffffffffffffffffffffffffffffff169050919050565b600061064a82610d01565b90508073ffffffffffffffffffffffffffffffffffffffff163373ffffffffffffffffffffffffffffffffffffffff16148061068c575061068b813361141c565b5b61069557600080fd5b61069e82610d01565b73ffffffffffffffffffffffffffffffffffffffff168373ffffffffffffffffffffffffffffffffffffffff1614156106d657600080fd5b6001600560008373ffffffffffffffffffffffffffffffffffffffff1673ffffffffffffffffffffffffffffffffffffffff16815260200190815260200160002060008573ffffffffffffffffffffffffffffffffffffffff1673ffffffffffffffffffffffffffffffffffffffff16815260200190815260200160002060006101000a81548160ff021916908315150217905550826003600084815260200190815260200160002060006101000a81548173ffffffffffffffffffffffffffffffffffffffff021916908373ffffffffffffffffffffffffffffffffffffffff160217905550818373ffffffffffffffffffffffffffffffffffffffff168273ffffffffffffffffffffffffffffffffffffffff167f8c5be1e5ebec7d5bd14f71427d1e84f3dd0314c0f7b2291e5b200ac8c7c3b92560405160405180910390a4505050565b60008054906101000a900473ffffffffffffffffffffffffffffffffffffffff1673ffffffffffffffffffffffffffffffffffffffff163373ffffffffffffffffffffffffffffffffffffffff16146108ab576040517f08c379a00000000000000000000000000000000000000000000000000000000081526004016108a290612e0d565b60405180910390fd5b60008060149054906101000a900460ff16905081600060146101000a81548160ff0219169083151502179055508115158115151461095e578115610925577f81990fd9a5c552b8e3677917d8a03c07678f0d2cb68f88b634aca2022e9bd19f33604051610918919061251c565b60405180910390a161095d565b7f472e056847699a88a64a275bcc75c153a7f8bb3f37c8b1390d6abd2426d5c4ba33604051610954919061251c565b60405180910390a15b5b5050565b6000600880549050905090565b61097933826115f1565b6109b8576040517f08c379a00000000000000000000000000000000000000000000000000000000081526004016109af90612e9f565b60405180910390fd5b6109c3838383611686565b505050565b610a208282600067ffffffffffffffff8111156109e8576109e76126b9565b5b6040519080825280601f01601f191660200182016040528015610a1a5781602001600182028036833780820191505090505b50610bf3565b5050565b6000610a3084846116aa565b90503373ffffffffffffffffffffffffffffffffffffffff166015600083815260200190815260200160002060010160009054906101000a900473ffffffffffffffffffffffffffffffffffffffff1673ffffffffffffffffffffffffffffffffffffffff1614610ad6576040517f08c379a0000000000000000000000000000000000000000000000000000000008152600401610acd90612f0b565b60405180910390fd5b6015600082815260200190815260200160002060010160149054906101000a900460ff1615610b3a576040517f08c379a0000000000000000000000000000000000000000000000000000000008152600401610b3190612f9d565b60405180910390fd5b60016015600083815260200190815260200160002060010160146101000a81548160ff021916908315150217905550610b733383611717565b50505050565b6000610b848361106c565b8210610b8f57600080fd5b600660008473ffffffffffffffffffffffffffffffffffffffff1673ffffffffffffffffffffffffffffffffffffffff1681526020019081526020016000208281548110610be057610bdf612fbd565b5b9060005260206000200154905092915050565b505050565b60008060009054906101000a900473ffffffffffffffffffffffffffffffffffffffff1673ffffffffffffffffffffffffffffffffffffffff163373ffffffffffffffffffffffffffffffffffffffff1614610c89576040517f08c379a0000000000000000000000000000000000000000000000000000000008152600401610c8090612e0d565b60405180910390fd5b610c938383611717565b610c9c82611738565b6001905092915050565b610cc1838383604051806020016040528060008152506112ad565b505050565b6000610cd0610962565b8210610cdb57600080fd5b60088281548110610cef57610cee612fbd565b5b90600052602060002001549050919050565b60006002600083815260200190815260200160002060009054906101000a900473ffffffffffffffffffffffffffffffffffffffff169050919050565b6000806000610d4d85856116aa565b92506000601360009054906101000a900473ffffffffffffffffffffffffffffffffffffffff1673ffffffffffffffffffffffffffffffffffffffff166343cd76fc87876040518363ffffffff1660e01b8152600401610dae92919061319a565b602060405180830381865afa158015610dcb573d6000803e3d6000fd5b505050506040513d601f19601f82011682018060405250810190610def91906131da565b9050600073ffffffffffffffffffffffffffffffffffffffff166015600086815260200190815260200160002060010160009054906101000a900473ffffffffffffffffffffffffffffffffffffffff1673ffffffffffffffffffffffffffffffffffffffff1614610e96576040517f08c379a0000000000000000000000000000000000000000000000000000000008152600401610e8d90613253565b60405180910390fd5b80610ed6576040517f08c379a0000000000000000000000000000000000000000000000000000000008152600401610ecd906132bf565b60405180910390fd5b6014805490509250339150600060405180606001604052808581526020018473ffffffffffffffffffffffffffffffffffffffff168152602001600015158152509050836015600087815260200190815260200160002060000181905550826015600087815260200190815260200160002060010160006101000a81548173ffffffffffffffffffffffffffffffffffffffff021916908373ffffffffffffffffffffffffffffffffffffffff16021790555060148190806001815401808255809150506001900390600052602060002090600202016000909190919091506000820151816000015560208201518160010160006101000a81548173ffffffffffffffffffffffffffffffffffffffff021916908373ffffffffffffffffffffffffffffffffffffffff16021790555060408201518160010160146101000a81548160ff02191690831515021790555050507f6deda040c9fdcb4d40e7ac2922c1a4d9c197dbf05846c769bcd7e318c9ae00d185858560405161105b93929190612bd3565b60405180910390a150509250925092565b60006110b5600460008473ffffffffffffffffffffffffffffffffffffffff1673ffffffffffffffffffffffffffffffffffffffff16815260200190815260200160002061179f565b9050919050565b60008060009054906101000a900473ffffffffffffffffffffffffffffffffffffffff16905090565b6060601080546110f490612d69565b80601f016020809104026020016040519081016040528092919081815260200182805461112090612d69565b801561116d5780601f106111425761010080835404028352916020019161116d565b820191906000526020600020905b81548152906001019060200180831161115057829003601f168201915b5050505050905090565b3373ffffffffffffffffffffffffffffffffffffffff168273ffffffffffffffffffffffffffffffffffffffff1614156111b057600080fd5b80600560003373ffffffffffffffffffffffffffffffffffffffff1673ffffffffffffffffffffffffffffffffffffffff16815260200190815260200160002060008473ffffffffffffffffffffffffffffffffffffffff1673ffffffffffffffffffffffffffffffffffffffff16815260200190815260200160002060006101000a81548160ff0219169083151502179055508173ffffffffffffffffffffffffffffffffffffffff163373ffffffffffffffffffffffffffffffffffffffff167f17307eab39ab6107e8899845ad3d59bd9653f200f220920489ca2b5937696c31836040516112a191906123a2565b60405180910390a35050565b6112b884848461096f565b6112c4848484846117ad565b6112cd57600080fd5b50505050565b60606112de826118b5565b6112e757600080fd5b60126000838152602001908152602001600020805461130590612d69565b80601f016020809104026020016040519081016040528092919081815260200182805461133190612d69565b801561137e5780601f106113535761010080835404028352916020019161137e565b820191906000526020600020905b81548152906001019060200180831161136157829003601f168201915b50505050509050919050565b60606011805461139990612d69565b80601f01602080910402602001604051908101604052809291908181526020018280546113c590612d69565b80156114125780601f106113e757610100808354040283529160200191611412565b820191906000526020600020905b8154815290600101906020018083116113f557829003601f168201915b5050505050905090565b6000600560008473ffffffffffffffffffffffffffffffffffffffff1673ffffffffffffffffffffffffffffffffffffffff16815260200190815260200160002060008373ffffffffffffffffffffffffffffffffffffffff1673ffffffffffffffffffffffffffffffffffffffff16815260200190815260200160002060009054906101000a900460ff16905092915050565b60008054906101000a900473ffffffffffffffffffffffffffffffffffffffff1673ffffffffffffffffffffffffffffffffffffffff163373ffffffffffffffffffffffffffffffffffffffff161461153e576040517f08c379a000000000000000000000000000000000000000000000000000000000815260040161153590612e0d565b60405180910390fd5b600073ffffffffffffffffffffffffffffffffffffffff168173ffffffffffffffffffffffffffffffffffffffff1614156115ae576040517f08c379a00000000000000000000000000000000000000000000000000000000081526004016115a59061332b565b60405180910390fd5b806000806101000a81548173ffffffffffffffffffffffffffffffffffffffff021916908373ffffffffffffffffffffffffffffffffffffffff16021790555050565b6000806115fd83610d01565b90508073ffffffffffffffffffffffffffffffffffffffff168473ffffffffffffffffffffffffffffffffffffffff16148061166c57508373ffffffffffffffffffffffffffffffffffffffff1661165484610602565b73ffffffffffffffffffffffffffffffffffffffff16145b8061167d575061167c818561141c565b5b91505092915050565b611691838383611927565b61169b8382611ba0565b6116a58282611d51565b505050565b6000826000015160000151836000015160200151846020015160000151856020015160200151866040015160000151876020015160200151876040516020016116f997969594939291906133f5565b60405160208183030381529060405280519060200120905092915050565b6117218282611e15565b61172b8282611d51565b61173481611ff4565b5050565b611741816118b5565b61174a57600080fd5b60116117558261203d565b604051602001611766929190613546565b60405160208183030381529060405260126000838152602001908152602001600020908051906020019061179b92919061224b565b5050565b600081600001549050919050565b60006117ce8473ffffffffffffffffffffffffffffffffffffffff166121c6565b6117db57600190506118ad565b60008473ffffffffffffffffffffffffffffffffffffffff1663150b7a02338887876040518563ffffffff1660e01b815260040161181c94939291906135bf565b6020604051808303816000875af115801561183b573d6000803e3d6000fd5b505050506040513d601f19601f8201168201806040525081019061185f9190613620565b905063150b7a0260e01b7bffffffffffffffffffffffffffffffffffffffffffffffffffffffff1916817bffffffffffffffffffffffffffffffffffffffffffffffffffffffff1916149150505b949350505050565b6000806002600084815260200190815260200160002060009054906101000a900473ffffffffffffffffffffffffffffffffffffffff169050600073ffffffffffffffffffffffffffffffffffffffff168173ffffffffffffffffffffffffffffffffffffffff161415915050919050565b61193081610d01565b73ffffffffffffffffffffffffffffffffffffffff168373ffffffffffffffffffffffffffffffffffffffff161461199d576040517f08c379a000000000000000000000000000000000000000000000000000000000815260040161199490613699565b60405180910390fd5b600073ffffffffffffffffffffffffffffffffffffffff168273ffffffffffffffffffffffffffffffffffffffff161415611a0d576040517f08c379a0000000000000000000000000000000000000000000000000000000008152600401611a0490613705565b60405180910390fd5b60006003600083815260200190815260200160002060006101000a81548173ffffffffffffffffffffffffffffffffffffffff021916908373ffffffffffffffffffffffffffffffffffffffff160217905550611aa7600460008573ffffffffffffffffffffffffffffffffffffffff1673ffffffffffffffffffffffffffffffffffffffff1681526020019081526020016000206121d9565b816002600083815260200190815260200160002060006101000a81548173ffffffffffffffffffffffffffffffffffffffff021916908373ffffffffffffffffffffffffffffffffffffffff160217905550611b40600460008473ffffffffffffffffffffffffffffffffffffffff1673ffffffffffffffffffffffffffffffffffffffff168152602001908152602001600020612235565b808273ffffffffffffffffffffffffffffffffffffffff168473ffffffffffffffffffffffffffffffffffffffff167fddf252ad1be2c89b69c2b068fc378daa952ba7f163c4a11628f55a4df523b3ef60405160405180910390a4505050565b60006001600660008573ffffffffffffffffffffffffffffffffffffffff1673ffffffffffffffffffffffffffffffffffffffff16815260200190815260200160002080549050611bf19190613754565b9050600060076000848152602001908152602001600020549050818114611cec576000600660008673ffffffffffffffffffffffffffffffffffffffff1673ffffffffffffffffffffffffffffffffffffffff1681526020019081526020016000208381548110611c6557611c64612fbd565b5b9060005260206000200154905080600660008773ffffffffffffffffffffffffffffffffffffffff1673ffffffffffffffffffffffffffffffffffffffff1681526020019081526020016000208381548110611cc457611cc3612fbd565b5b9060005260206000200181905550816007600083815260200190815260200160002081905550505b600660008573ffffffffffffffffffffffffffffffffffffffff1673ffffffffffffffffffffffffffffffffffffffff1681526020019081526020016000208281548110611d3d57611d3c612fbd565b5b906000526020600020016000905550505050565b600660008373ffffffffffffffffffffffffffffffffffffffff1673ffffffffffffffffffffffffffffffffffffffff168152602001908152602001600020805490506007600083815260200190815260200160002081905550600660008373ffffffffffffffffffffffffffffffffffffffff1673ffffffffffffffffffffffffffffffffffffffff1681526020019081526020016000208190806001815401808255809150506001900390600052602060002001600090919091909150555050565b600073ffffffffffffffffffffffffffffffffffffffff168273ffffffffffffffffffffffffffffffffffffffff161415611e85576040517f08c379a0000000000000000000000000000000000000000000000000000000008152600401611e7c906137d4565b60405180910390fd5b600073ffffffffffffffffffffffffffffffffffffffff16611ea682610d01565b73ffffffffffffffffffffffffffffffffffffffff1614611efc576040517f08c379a0000000000000000000000000000000000000000000000000000000008152600401611ef390613840565b60405180910390fd5b816002600083815260200190815260200160002060006101000a81548173ffffffffffffffffffffffffffffffffffffffff021916908373ffffffffffffffffffffffffffffffffffffffff160217905550611f95600460008473ffffffffffffffffffffffffffffffffffffffff1673ffffffffffffffffffffffffffffffffffffffff168152602001908152602001600020612235565b808273ffffffffffffffffffffffffffffffffffffffff163373ffffffffffffffffffffffffffffffffffffffff167fddf252ad1be2c89b69c2b068fc378daa952ba7f163c4a11628f55a4df523b3ef60405160405180910390a45050565b6008805490506009600083815260200190815260200160002081905550600881908060018154018082558091505060019003906000526020600020016000909190919091505550565b60606000821415612085576040518060400160405280600181526020017f300000000000000000000000000000000000000000000000000000000000000081525090506121c1565b600082905060005b600082146120b75780806120a090613860565b915050600a826120b091906138d8565b915061208d565b60008167ffffffffffffffff8111156120d3576120d26126b9565b5b6040519080825280601f01601f1916602001820160405280156121055781602001600182028036833780820191505090505b50905060008290505b600086146121b9576001816121239190613754565b90506000600a808861213591906138d8565b61213f9190613909565b8761214a9190613754565b60306121569190613970565b905060008160f81b90508084848151811061217457612173612fbd565b5b60200101907effffffffffffffffffffffffffffffffffffffffffffffffffffffffffffff1916908160001a905350600a886121b091906138d8565b9750505061210e565b819450505050505b919050565b600080823b905060008111915050919050565b60008160000154905060008111612225576040517f08c379a000000000000000000000000000000000000000000000000000000000815260040161221c906139f3565b60405180910390fd5b6001810382600001819055505050565b6001816000016000828254019250508190555050565b82805461225790612d69565b90600052602060002090601f01602090048101928261227957600085556122c0565b82601f1061229257805160ff19168380011785556122c0565b828001600101855582156122c0579182015b828111156122bf5782518255916020019190600101906122a4565b5b5090506122cd91906122d1565b5090565b5b808211156122ea5760008160009055506001016122d2565b5090565b6000604051905090565b600080fd5b600080fd5b60007fffffffff0000000000000000000000000000000000000000000000000000000082169050919050565b61233781612302565b811461234257600080fd5b50565b6000813590506123548161232e565b92915050565b6000602082840312156123705761236f6122f8565b5b600061237e84828501612345565b91505092915050565b60008115159050919050565b61239c81612387565b82525050565b60006020820190506123b76000830184612393565b92915050565b600081519050919050565b600082825260208201905092915050565b60005b838110156123f75780820151818401526020810190506123dc565b83811115612406576000848401525b50505050565b6000601f19601f8301169050919050565b6000612428826123bd565b61243281856123c8565b93506124428185602086016123d9565b61244b8161240c565b840191505092915050565b60006020820190508181036000830152612470818461241d565b905092915050565b6000819050919050565b61248b81612478565b811461249657600080fd5b50565b6000813590506124a881612482565b92915050565b6000602082840312156124c4576124c36122f8565b5b60006124d284828501612499565b91505092915050565b600073ffffffffffffffffffffffffffffffffffffffff82169050919050565b6000612506826124db565b9050919050565b612516816124fb565b82525050565b6000602082019050612531600083018461250d565b92915050565b612540816124fb565b811461254b57600080fd5b50565b60008135905061255d81612537565b92915050565b6000806040838503121561257a576125796122f8565b5b60006125888582860161254e565b925050602061259985828601612499565b9150509250929050565b6125ac81612387565b81146125b757600080fd5b50565b6000813590506125c9816125a3565b92915050565b6000602082840312156125e5576125e46122f8565b5b60006125f3848285016125ba565b91505092915050565b61260581612478565b82525050565b600060208201905061262060008301846125fc565b92915050565b60008060006060848603121561263f5761263e6122f8565b5b600061264d8682870161254e565b935050602061265e8682870161254e565b925050604061266f86828701612499565b9150509250925092565b6000819050919050565b61268c81612679565b811461269757600080fd5b50565b6000813590506126a981612683565b92915050565b600080fd5b600080fd5b7f4e487b7100000000000000000000000000000000000000000000000000000000600052604160045260246000fd5b6126f18261240c565b810181811067ffffffffffffffff821117156127105761270f6126b9565b5b80604052505050565b60006127236122ee565b905061272f82826126e8565b919050565b600067ffffffffffffffff82111561274f5761274e6126b9565b5b6127588261240c565b9050602081019050919050565b82818337600083830152505050565b600061278761278284612734565b612719565b9050828152602081018484840111156127a3576127a26126b4565b5b6127ae848285612765565b509392505050565b600082601f8301126127cb576127ca6126af565b5b81356127db848260208601612774565b91505092915050565b600080604083850312156127fb576127fa6122f8565b5b60006128098582860161269a565b925050602083013567ffffffffffffffff81111561282a576128296122fd565b5b612836858286016127b6565b9150509250929050565b600080fd5b60006040828403121561285b5761285a612840565b5b6128656040612719565b9050600061287584828501612499565b600083015250602061288984828501612499565b60208301525092915050565b600067ffffffffffffffff8211156128b0576128af6126b9565b5b602082029050919050565b600080fd5b60006128d36128ce84612895565b612719565b905080602084028301858111156128ed576128ec6128bb565b5b835b8181101561291657806129028882612499565b8452602084019350506020810190506128ef565b5050509392505050565b600082601f830112612935576129346126af565b5b60026129428482856128c0565b91505092915050565b60006080828403121561296157612960612840565b5b61296b6040612719565b9050600061297b84828501612920565b600083015250604061298f84828501612920565b60208301525092915050565b600061010082840312156129b2576129b1612840565b5b6129bc6060612719565b905060006129cc84828501612845565b60008301525060406129e08482850161294b565b60208301525060c06129f484828501612845565b60408301525092915050565b60008060006101608486031215612a1a57612a196122f8565b5b6000612a288682870161299b565b935050610100612a3a86828701612920565b925050610140612a4c86828701612499565b9150509250925092565b600067ffffffffffffffff821115612a7157612a706126b9565b5b612a7a8261240c565b9050602081019050919050565b6000612a9a612a9584612a56565b612719565b905082815260208101848484011115612ab657612ab56126b4565b5b612ac1848285612765565b509392505050565b600082601f830112612ade57612add6126af565b5b8135612aee848260208601612a87565b91505092915050565b600080600060608486031215612b1057612b0f6122f8565b5b6000612b1e8682870161269a565b935050602084013567ffffffffffffffff811115612b3f57612b3e6122fd565b5b612b4b868287016127b6565b925050604084013567ffffffffffffffff811115612b6c57612b6b6122fd565b5b612b7886828701612ac9565b9150509250925092565b6000806101408385031215612b9a57612b996122f8565b5b6000612ba88582860161299b565b925050610100612bba85828601612920565b9150509250929050565b612bcd81612679565b82525050565b6000606082019050612be86000830186612bc4565b612bf560208301856125fc565b612c02604083018461250d565b949350505050565b600060208284031215612c2057612c1f6122f8565b5b6000612c2e8482850161254e565b91505092915050565b60008060408385031215612c4e57612c4d6122f8565b5b6000612c5c8582860161254e565b9250506020612c6d858286016125ba565b9150509250929050565b60008060008060808587031215612c9157612c906122f8565b5b6000612c9f8782880161254e565b9450506020612cb08782880161254e565b9350506040612cc187828801612499565b925050606085013567ffffffffffffffff811115612ce257612ce16122fd565b5b612cee87828801612ac9565b91505092959194509250565b60008060408385031215612d1157612d106122f8565b5b6000612d1f8582860161254e565b9250506020612d308582860161254e565b9150509250929050565b7f4e487b7100000000000000000000000000000000000000000000000000000000600052602260045260246000fd5b60006002820490506001821680612d8157607f821691505b60208210811415612d9557612d94612d3a565b5b50919050565b7f4f6e6c7920636f6e7472616374206f776e65722063616e20646f20746869732060008201527f616374696f6e0000000000000000000000000000000000000000000000000000602082015250565b6000612df76026836123c8565b9150612e0282612d9b565b604082019050919050565b60006020820190508181036000830152612e2681612dea565b9050919050565b7f4e6f7420617070726f766564206f72206f776e6572206f662074686520746f6b60008201527f656e000000000000000000000000000000000000000000000000000000000000602082015250565b6000612e896022836123c8565b9150612e9482612e2d565b604082019050919050565b60006020820190508181036000830152612eb881612e7c565b9050919050565b7f4e6f7420746865206f776e6572206f662074686520736f6c7574696f6e2e0000600082015250565b6000612ef5601e836123c8565b9150612f0082612ebf565b602082019050919050565b60006020820190508181036000830152612f2481612ee8565b9050919050565b7f54686520736f6c7574696f6e2068617320616c7265616479206265656e20757360008201527f6564000000000000000000000000000000000000000000000000000000000000602082015250565b6000612f876022836123c8565b9150612f9282612f2b565b604082019050919050565b60006020820190508181036000830152612fb681612f7a565b9050919050565b7f4e487b7100000000000000000000000000000000000000000000000000000000600052603260045260246000fd5b612ff581612478565b82525050565b6040820160008201516130116000850182612fec565b5060208201516130246020850182612fec565b50505050565b600060029050919050565b600081905092915050565b6000819050919050565b60006130568383612fec565b60208301905092915050565b6000602082019050919050565b6130788161302a565b6130828184613035565b925061308d82613040565b8060005b838110156130be5781516130a5878261304a565b96506130b083613062565b925050600181019050613091565b505050505050565b6080820160008201516130dc600085018261306f565b5060208201516130ef604085018261306f565b50505050565b6101008201600082015161310c6000850182612ffb565b50602082015161311f60408501826130c6565b50604082015161313260c0850182612ffb565b50505050565b600081905092915050565b61314c8161302a565b6131568184613138565b925061316182613040565b8060005b83811015613192578151613179878261304a565b965061318483613062565b925050600181019050613165565b505050505050565b6000610140820190506131b060008301856130f5565b6131be610100830184613143565b9392505050565b6000815190506131d4816125a3565b92915050565b6000602082840312156131f0576131ef6122f8565b5b60006131fe848285016131c5565b91505092915050565b7f5468697320736f6c7574696f6e20697320616c72656164792070726573656e74600082015250565b600061323d6020836123c8565b915061324882613207565b602082019050919050565b6000602082019050818103600083015261326c81613230565b9050919050565b7f496e76616c696420736f6c7574696f6e00000000000000000000000000000000600082015250565b60006132a96010836123c8565b91506132b482613273565b602082019050919050565b600060208201905081810360008301526132d88161329c565b9050919050565b7f50726f76696465642061646472657373206e6f742076616c6964000000000000600082015250565b6000613315601a836123c8565b9150613320826132df565b602082019050919050565b6000602082019050818103600083015261334481613308565b9050919050565b6000819050919050565b61336661336182612478565b61334b565b82525050565b600081905092915050565b61338081612478565b82525050565b60006133928383613377565b60208301905092915050565b6133a78161302a565b6133b1818461336c565b92506133bc82613040565b8060005b838110156133ed5781516133d48782613386565b96506133df83613062565b9250506001810190506133c0565b505050505050565b6000613401828a613355565b6020820191506134118289613355565b602082019150613421828861339e565b604082019150613431828761339e565b6040820191506134418286613355565b602082019150613451828561339e565b604082019150613461828461339e565b60408201915081905098975050505050505050565b600081905092915050565b60008190508160005260206000209050919050565b600081546134a381612d69565b6134ad8186613476565b945060018216600081146134c857600181146134d95761350c565b60ff1983168652818601935061350c565b6134e285613481565b60005b83811015613504578154818901526001820191506020810190506134e5565b838801955050505b50505092915050565b6000613520826123bd565b61352a8185613476565b935061353a8185602086016123d9565b80840191505092915050565b60006135528285613496565b915061355e8284613515565b91508190509392505050565b600081519050919050565b600082825260208201905092915050565b60006135918261356a565b61359b8185613575565b93506135ab8185602086016123d9565b6135b48161240c565b840191505092915050565b60006080820190506135d4600083018761250d565b6135e1602083018661250d565b6135ee60408301856125fc565b81810360608301526136008184613586565b905095945050505050565b60008151905061361a8161232e565b92915050565b600060208284031215613636576136356122f8565b5b60006136448482850161360b565b91505092915050565b7f4e6f7420746865206f776e6572206f662074686520746f6b656e000000000000600082015250565b6000613683601a836123c8565b915061368e8261364d565b602082019050919050565b600060208201905081810360008301526136b281613676565b9050919050565b7f496e76616c696420746f20616464726573730000000000000000000000000000600082015250565b60006136ef6012836123c8565b91506136fa826136b9565b602082019050919050565b6000602082019050818103600083015261371e816136e2565b9050919050565b7f4e487b7100000000000000000000000000000000000000000000000000000000600052601160045260246000fd5b600061375f82612478565b915061376a83612478565b92508282101561377d5761377c613725565b5b828203905092915050565b7f50726f7669646564206164647265737320696e76616c69640000000000000000600082015250565b60006137be6018836123c8565b91506137c982613788565b602082019050919050565b600060208201905081810360008301526137ed816137b1565b9050919050565b7f50726f766964656420746f6b656e20616c726561647920657869737473000000600082015250565b600061382a601d836123c8565b9150613835826137f4565b602082019050919050565b600060208201905081810360008301526138598161381d565b9050919050565b600061386b82612478565b91507fffffffffffffffffffffffffffffffffffffffffffffffffffffffffffffffff82141561389e5761389d613725565b5b600182019050919050565b7f4e487b7100000000000000000000000000000000000000000000000000000000600052601260045260246000fd5b60006138e382612478565b91506138ee83612478565b9250826138fe576138fd6138a9565b5b828204905092915050565b600061391482612478565b915061391f83612478565b9250817fffffffffffffffffffffffffffffffffffffffffffffffffffffffffffffffff048311821515161561395857613957613725565b5b828202905092915050565b600060ff82169050919050565b600061397b82613963565b915061398683613963565b92508260ff0382111561399c5761399b613725565b5b828201905092915050565b7f436f756e7465723a2064656372656d656e74206f766572666c6f770000000000600082015250565b60006139dd601b836123c8565b91506139e8826139a7565b602082019050919050565b60006020820190508181036000830152613a0c816139d0565b905091905056fea26469706673582212204c23e7f5569e42e85b9d454f1154163d30be483f9ffcc353924e18c167b83e1564736f6c634300080b003368747470733a2f2f73332d75732d776573742d322e616d617a6f6e6177732e636f6d2f756461636974792d626c6f636b636861696e2f63617073746f6e652f",
  "immutableReferences": {},
  "source": "pragma solidity ^0.8.10;\n\n// TODO define a contract call to the zokrates generated solidity contract <Verifier> or <renamedVerifier>\n\n// TODO define another contract named SolnSquareVerifier that inherits from your ERC721Mintable class\n\n// TODO define a solutions struct that can hold an index & an address\n\n// TODO define an array of the above struct\n\n// TODO define a mapping to store unique solutions submitted\n\n// TODO Create an event to emit when a solution is added\n\n// TODO Create a function to add the solutions to the array and emit the event\n\n// TODO Create a function to mint new NFT only after the solution has been verified\n//  - make sure the solution is unique (has not been used before)\n//  - make sure you handle metadata as well as tokenSuplly\n\nimport \"./ERC721Mintable.sol\";\nimport \"./SquareVerifier.sol\";\n\ncontract SolnSquareVerifier is CustomERC721Token {\n    SquareVerifier private _myVerifier;\n    using Pairing for *;\n\n    struct Solution {\n        uint256 index;\n        address owner;\n        bool minted;\n    }\n\n    Solution[] private _allSolutions;\n\n    mapping(bytes32 => Solution) _solutionsMap;\n\n    event SolutionAdded(bytes32 key, uint256 index, address owner);\n\n    constructor(\n        string memory name,\n        string memory symbol,\n        address verifierAddress\n    )  CustomERC721Token(name, symbol){\n        _myVerifier = SquareVerifier(verifierAddress);\n    }\n\n    function addSolution(\n        SquareVerifier.Proof memory proof,\n        uint256[2] memory input\n    )\n        external\n        returns (\n            bytes32 key,\n            uint256 index,\n            address owner\n        )\n    {\n        key = getSolutionKey(proof, input);\n        bool valid = _myVerifier.verifyTx(proof, input);\n        require(\n            _solutionsMap[key].owner == address(0),\n            \"This solution is already present\"\n        );\n        require(valid, \"Invalid solution\");\n\n        index = _allSolutions.length;\n        owner = msg.sender;\n        Solution memory newSolution = Solution(index, owner, false);\n\n        _solutionsMap[key].index = index;\n        _solutionsMap[key].owner = owner;\n\n        _allSolutions.push(newSolution);\n\n        emit SolutionAdded(key, index, owner);\n\n        return (key, index, owner);\n    }\n\n    function mint(\n        SquareVerifier.Proof memory proof,\n        uint256[2] memory input,\n        uint256 tokenId\n    ) public {\n        bytes32 key = getSolutionKey(proof, input);\n        require(\n            _solutionsMap[key].owner == msg.sender,\n            \"Not the owner of the solution.\"\n        );\n        require(\n            !_solutionsMap[key].minted,\n            \"The solution has already been used\"\n        );\n\n        _solutionsMap[key].minted = true;\n\n        super._mint(msg.sender, tokenId);\n    }\n\n    function getSolutionKey(\n        SquareVerifier.Proof memory proof,\n        uint256[2] memory input\n    ) internal pure returns (bytes32) {\n        return (\n            keccak256(\n                abi.encodePacked(\n                    proof.a.X,\n                    proof.a.Y,\n                    proof.b.X,\n                    proof.b.Y,\n                    proof.c.X,\n                    proof.b.Y,\n                    input\n                )\n            )\n        );\n    }\n}\n",
  "sourcePath": "/Users/elmanhasa/my-sources/Blockchain-Capstone/eth-contracts/contracts/SolnSquareVerifier.sol",
  "compiler": {
    "name": "solc",
    "version": "0.8.11+commit.d7f03943.Emscripten.clang"
  },
  "schemaVersion": "3.4.3",
  "updatedAt": "2022-01-27T23:35:10.626Z",
  "networkType": "ethereum",
  "devdoc": {
    "kind": "dev",
    "methods": {
      "isApprovedForAll(address,address)": {
        "details": "Tells whether an operator is approved by a given owner",
        "params": {
          "operator": "operator address which you want to query the approval of",
          "owner": "owner address which you want to query the approval of"
        },
        "returns": {
          "_0": "bool whether the given operator is approved by the given owner"
        }
      },
      "setApprovalForAll(address,bool)": {
        "details": "Sets or unsets the approval of a given operator An operator is allowed to transfer all tokens of the sender on their behalf",
        "params": {
          "approved": "representing the status of the approval to be set",
          "to": "operator address to set the approval"
        }
      },
      "supportsInterface(bytes4)": {
        "details": "implement supportsInterface(bytes4) using a lookup table"
      },
      "tokenByIndex(uint256)": {
        "details": "Gets the token ID at a given index of all the tokens in this contract Reverts if the index is greater or equal to the total number of tokens",
        "params": {
          "index": "uint256 representing the index to be accessed of the tokens list"
        },
        "returns": {
          "_0": "uint256 token ID at the given index of the tokens list"
        }
      },
      "tokenOfOwnerByIndex(address,uint256)": {
        "details": "Gets the token ID at a given index of the tokens list of the requested owner",
        "params": {
          "index": "uint256 representing the index to be accessed of the requested tokens list",
          "owner": "address owning the tokens list to be accessed"
        },
        "returns": {
          "_0": "uint256 token ID at the given index of the tokens list owned by the requested address"
        }
      },
      "totalSupply()": {
        "details": "Gets the total amount of tokens stored by the contract",
        "returns": {
          "_0": "uint256 representing the total amount of tokens"
        }
      }
    },
    "version": 1
  },
  "userdoc": {
    "kind": "user",
    "methods": {},
    "version": 1
  }
}